:020000040800F2
:1000000080770020350300083D0300083F03000807
:1000100041030008430300084503000800000000F6
:100020000000000000000000000000006D02000859
:100030004903000800000000E50200082103000851
:100040004F0300084F0300084F0300084F03000848
:100050004F0300084F0300084F0300084F03000838
:100060004F0300084F0300084F030008610B00080E
:10007000810B0008A10B0008C10B0008E10B000870
:10008000010C0008210C00084F0300084F03000872
:100090004F0300084F0300084F0300084F030008F8
:1000A0004F0300084F0300084F0300084F030008E8
:1000B0004F0300084F0300084F0300084F030008D8
:1000C0004F0300084F0300084F0300084F030008C8
:1000D0004F03000805210008A5220008A1240008FC
:1000E0004F0300084F0300084F0300084F030008A8
:1000F0004F0300084F0300084F0300084F03000898
:100100004F0300084F0300084F0300084F03000887
:1001100019200008292000084F0300084F03000899
:10012000410C0008610C0008850C0008A50C0008B3
:1001300000F002F800F045F80AA090E8000C8244B4
:100140008344AAF10107DA4501D100F03AF8AFF291
:10015000090EBAE80F0013F0010F18BFFB1A43F0A5
:1001600001031847A8B30000C8B30000103A24BF29
:1001700078C878C1FAD8520724BF30C830C144BF0C
:1001800004680C607047000000230024002500264E
:10019000103A28BF78C1FBD8520728BF30C148BFEA
:1001A0000B607047642900F0DF81782900F0188225
:1001B000732900F08484002070471FB51FBD10B55F
:1001C00010BD00F087FC1146FFF7F7FF0FB400F0F9
:1001D0000BF80FBC04F07AFE00F0CAFA03B4FFF784
:1001E000EEFF03BC00F070FC04B004F0F7FE04481E
:1001F000002104F0BDFF04F003FF00F0B9FA000095
:1002000050B0000880F309887047EFF30980704709
:10021000684680F3098804480078C00714BF0220AC
:10022000032080F31488704710B00008DFF818C06E
:10023000EFF305831B0618BF6047EFF31483DB075A
:1002400008BF604700DF704783520008DFF818C01E
:10025000EFF305831B0618BF6047EFF31483DB073A
:1002600008BF604700DF704769540008EFF309805A
:10027000816911F8021CF1B990E80F10E047EFF323
:10028000098C8CE80700144B93E8060091420FD0CC
:1002900039B12CE9F00FC1F828C00CB405F0CCFC42
:1002A0000CBC1A60D2F828C0BCE8F00F8CF30988A7
:1002B0006FF0020E704710B5084A1268914209D8D3
:1002C000074C54F8214090E80F10A047EFF3098C39
:1002D0008CE80F0010BD00006C000020200B00080F
:1002E000200B000805F07AFB0C4B93E806009142C6
:1002F00010D0EFF3098C2CE9F00FC1F828C00CB432
:1003000005F09AFC0CBC1A60D2F828C0BCE8F00FCB
:100310008CF309886FF0020E704700006C0000201B
:1003200005F052FDE0E7000004F0AAFF05F04CFDE7
:10033000DAE700000948804709480047FEE7FEE782
:10034000FEE7FEE7FEE7FEE7FEE7FEE7FEE7FEE785
:1003500004480549054A064B70470000551F000830
:100360003101000880710020807700208073002018
:1003700080730020004870472071002053EA020C6F
:1003800000F069802DE9F04B4FF00006002B1FBFF5
:10039000B3FA83F503FA05F424FA05F65E4012BFBA
:1003A0001643B2FA82F502FA05F4C5F120051EBF24
:1003B00022FA05FC44EA0C04203556EA044C4FEAC4
:1003C000144418BF641C4FF000084FF0000990421D
:1003D00071EB030C39D3002919BFB1FA81F701FA87
:1003E00007F6B0FA80F700FA07F6C7F120071EBF3C
:1003F00020FA07FC46EA0C062037B6FBF4FCA7EB14
:100400000507103F07F01F0BCBF120060CFA0BFB82
:100410002CFA06F644BFB3460026202FA4BF5E4642
:100420004FF0000B5BEA060C08BF4FF0010B19EB15
:100430000B09ABFB027C48EB0608C01B06FB02CC99
:100440000BFB03CC71EB0C01C1E70B4602464146A6
:100450004846BDE8F08B13B54FF000004FF00001A7
:10046000AFF30080BDE81C40704700000FB41CB51E
:10047000074B06AA7B4469460090059800F0EDFA08
:100480000020694600F0FCFA1CBC5DF814FB00007B
:10049000090600000FB41CB50C0007AA009001D09B
:1004A0002044401E074B7B4469460190069800F0AB
:1004B000D4FA002C03D06946002000F0E1FA1CBCFD
:1004C0005DF814FBE105000070B50446856900681D
:1004D000C10601D5302600E02026C00707D070BD38
:1004E000D4E9012130469047206A401C20626D1EED
:1004F000F6D570BD70B5044685690078C00707D190
:1005000070BDD4E9012120209047206A401C206260
:100510006D1EF6D570BD70B50C460546012A05D096
:100520002878800600D5EA69002302E0012305E06F
:100530005B1C934202D2E05C0028F9D1A869E6185E
:10054000C01AA861286A184428622846FFF7BCFF31
:1005500004E0D5E9012114F8010B9047B442F8D327
:100560002846FFF7C7FF70BD2DE9F041064600247D
:1005700010687529314616A510D0AFF30080002809
:1005800002DA404213A507E031688A0701D512A5B7
:1005900002E0490704D511A5012401E0AFF3008072
:1005A00000210A2206F1240709E0B0FBF2FCB0FBAF
:1005B000F2F302FB1C00303078541846491C002826
:1005C000F3D123462A463046BDE8F04100F0E7B9B2
:1005D000000000002D0000002B00000020000000A3
:1005E00070B504460D4621461068AFF3008021889F
:1005F000090502D50F4A7A4402E00E4A7A440E32C7
:10060000002104F1240305E000F00F060009965DC7
:100610005E54491C0028F7D120780023000704D538
:10062000702D02D009B1022311322046BDE870407E
:1006300000F0B5B9EAAC00002DE9F05F8946044648
:100640004FF0000ADFF824B1FB44C0F820A0204698
:10065000E168884700287DD0252806D0D4E901210B
:100660009047206A401C2062F1E700255F46204643
:10067000E16888472028064607DB312E05D2B819E5
:1006800010F8200C08B10543F1E7A80701D525F0C3
:100690000405C4F81CA00027C4F818A02A2E09D00D
:1006A000304604F0FAFA38B304EB8708303EC8F855
:1006B000186019E059F8041B204604EB8702916189
:1006C000E1688847012F064618D1E069002820DA42
:1006D00025F020051DE0D8F8180000EB800006EB9F
:1006E00040003038C8F818002046E16888470646C0
:1006F00004F0D3FA0028EED1012F0AD02E2E08D113
:100700002046E16888477F1C0646022F45F02005F9
:10071000C4DBA069002803DA404245F00105A0616E
:10072000E80701D025F01005A6B1A6F1410019286F
:1007300002D8203645F400654A46314620462560F9
:100740004D46FFF72FFD60B1012807D0ED1D25F0C4
:10075000070000E007E000F1080978E705F1040967
:1007600075E730467AE7206ABDE8F09FC0AC00002C
:1007700010B50446AFF300802046BDE81040FFF7F7
:100780002DBD40EA010310B59B070FD1042A0DD3FC
:1007900010C808C9121F9C42F8D020BA19BA884262
:1007A00001D9012010BD4FF0FF3010BD1AB1D307A1
:1007B00003D0521C07E0002010BD10F8013B11F8D7
:1007C000014B1B1B07D110F8013B11F8014B1B1B00
:1007D00001D1921EF1D1184610BD10B5431C02E0A4
:1007E00010F8011B71B18107FAD14FF0013202C834
:1007F0008C1A8C4314EAC211F9D0C01A0A0603D02D
:10080000C01E10BDC01A10BD0A0401D0801E10BD4C
:100810000902FCD0401E10BD032A40F2308010F0C7
:10082000030C00F0158011F8013BBCF1020F62448B
:1008300098BF11F801CB00F8013B38BF11F8013B1C
:10084000A2F1040298BF00F801CB38BF00F8013BC9
:1008500011F0030300F02580083AC0F0088051F839
:10086000043B083A51F804CBA0E80810F5E7121D44
:100870005CBF51F8043B40F8043BAFF30080D20763
:1008800024BF11F8013B11F801CB48BF11F8012B2F
:1008900024BF00F8013B00F801CB48BF00F8012B52
:1008A000704710B5203AC0F00B80B1E81850203ADC
:1008B000A0E81850B1E81850A0E81850BFF4F5AF00
:1008C0005FEA027C24BFB1E81850A0E8185044BF8A
:1008D00018C918C0BDE810405FEA827C24BF51F8F7
:1008E000043B40F8043B08BF7047D20728BF31F8EB
:1008F000023B48BF11F8012B28BF20F8023B48BF3C
:1009000000F8012B70474FF000020429C0F012805C
:1009100010F0030C00F01B80CCF1040CBCF1020FB2
:1009200018BF00F8012BA8BF20F8022BA1EB0C0187
:1009300000F00DB85FEAC17C24BF00F8012B00F87D
:10094000012B48BF00F8012B70474FF0000200B5A3
:10095000134694469646203922BFA0E80C50A0E8E2
:100960000C50B1F12001BFF4F7AF090728BFA0E890
:100970000C5048BF0CC05DF804EB890028BF40F85C
:10098000042B08BF704748BF20F8022B11F0804F9E
:1009900018BF00F8012B70477047704770472DE96A
:1009A000F0470D4699469246044600F12408016836
:1009B000880604D5E06921F01001216000E00120E3
:1009C000A84201DD471B00E00027A1697A1902EB6C
:1009D0000900081AA0612078C00602D42046FFF75B
:1009E00073FD002608E0D4E901211AF806009047BB
:1009F000206A401C761C20624E45F4DB2078C0063D
:100A00000AD52046FFF760FD06E0D4E90121302039
:100A10009047206A401C2062381EA7F10107F4DCD1
:100A200007E0D4E9012118F805009047206A401C2E
:100A30002062281EA5F10105F3DC2046FFF75AFDD0
:100A40002078000602D50220BDE8F0870120FBE7F0
:100A500001694A1C02610878704700B58FB0CDE982
:100A600001310021059105497944CDE90310114672
:100A70006846FFF7E1FD0FB000BD0000E5FFFFFF96
:100A80000A6802F8010B0A607047D1E900239A4214
:100A900002D2531C0B601070704710B5436913B13C
:100AA000AFF3008001E0FFF736FD012010BD1278A2
:100AB00000F124010A7000224A700122EDE711685A
:100AC0004FF0FF32E9E7000001491820ABBEFEE716
:100AD000260002007546FFF74DFCAE46050069464C
:100AE000534620F00700854618B020B5FFF730FCCC
:100AF000BDE820404FF000064FF000074FF000081F
:100B00004FF0000B21F00701AC46ACE8C009ACE89F
:100B1000C009ACE8C009ACE8C0098D467047704711
:100B20000000000008B50121202001F06DF84FF40D
:100B30008040ADF8000003208DF8020014208DF8ED
:100B400003006946034800F065F901200249086086
:100B500008BD000000140140B88122427047000027
:100B600010B50548006800F00F04034844602046B3
:100B7000FFF7F4FF10BD00000000024070470000C6
:100B800010B505480068C0F303142001024948600D
:100B90002046FFF7F3FF10BD000002407047000041
:100BA00010B505480068C0F30324200202494860DC
:100BB0002046FFF7F3FF10BD000002407047000021
:100BC00010B505480068C0F30334200302494860AB
:100BD0002046FFF7F3FF10BD000002407047000001
:100BE00010B505480068C0F303442004024948607A
:100BF0002046FFF7F3FF10BD0000024070470000E1
:100C000010B505480068C0F3035420050249486048
:100C10002046FFF7F3FF10BD0000024070470000C0
:100C200010B505480068C0F3036420060249486017
:100C30002046FFF7F3FF10BD0000024070470000A0
:100C400010B50548006800F00F040348001D04605B
:100C50002046FFF7F3FF10BD00040240704700007C
:100C600010B506480068C0F3031420010349091DAC
:100C700008602046FFF7F2FF10BD000000040240AC
:100C80007047000010B506480068C0F30324200236
:100C90000349091D08602046FFF7F2FF10BD000060
:100CA0000004024010B50C480068C0F3033434B1AE
:100CB00020030949091D0860204600F00FF8064886
:100CC0000068C0F3034434B120040349091D0860DF
:100CD000204600F004F810BD000402407047704741
:100CE00018B5002844D0C0F34211C0F30322214BB1
:100CF0009B6903F001032BB91E4B9B6943F0010371
:100D00001C4CA36100F48053A3B11B4BDB6900931F
:100D100000F01F0301FA03F3009C9C43009400F0D1
:100D20001F0302FA03F3009C23430093124C009B21
:100D3000E3611DE0104B5B68009300F01F0301FAB4
:100D400003F3009C9C43009400F01F0302FA03F39A
:100D5000009C2343009307210022009B23EA0163A8
:100D60000093009B43EA02630093034C009B636083
:100D700018BD0000001002400000014001461D485F
:100D8000814204D11C488069C0F3800070471B4831
:100D9000814204D118488069C0F3C000F6E71848C2
:100DA000814204D114488069C0F30010EEE7154871
:100DB000814204D110488069C0F34010E6E7124830
:100DC000814204D10C488069C0F38010DEE70F48EF
:100DD000814204D108488069C0F3C010D6E70C48AE
:100DE000814204D104488069C0F30020CEE700208E
:100DF000CCE700000008014000100240000C014058
:100E0000001001400014014000180140001C014086
:100E1000002001402DE9F041024600250026002077
:100E200000230024002791F803C00CF00F0591F86F
:100E300003C00CF0100CBCF1000F03D091F802C0FD
:100E40004CEA050591F800C0BCF1000F31D01468E0
:100E500000202BE04FF0010C0CFA00F3B1F800C0B9
:100E60000CEA03069E4220D183004FF00F0C0CFACF
:100E700003F7BC4305FA03FC4CEA040491F803C0F1
:100E8000BCF1280F06D14FF0010C0CFA00FCC2F89F
:100E900014C00AE091F803C0BCF1480F05D14FF02F
:100EA000010C0CFA00FCC2F810C0401C0828D1D379
:100EB0001460B1F800C0BCF1FF0F34DD54680020AD
:100EC0002EE000F1080C4FF0010808FA0CF3B1F81D
:100ED00000C00CEA03069E4221D183004FF00F0CA4
:100EE0000CFA03F7BC4305FA03FC4CEA040491F83E
:100EF00003C0BCF1280F05D100F1080C08FA0CF86A
:100F0000C2F8148091F803C0BCF1480F07D100F17A
:100F1000080C4FF0010808FA0CF8C2F81080401CC9
:100F20000828CED35460BDE8F0812DE9F041054694
:100F30000C46174698460F2C02D90020BDE8F081D8
:100F40002846FFF71BFF18B90121284600F072F868
:100F5000B8F1000F10D1022F05D1E8680121A1409E
:100F60008843E86008E0032F06D127F00107E8680E
:100F70000121A1400843E860082C01D22E4601E07F
:100F8000083C2E1D3068A2000F219140884330603C
:100F900048EA8700A100884031680843306001209A
:100FA000CCE70000F0B50A4600230024002100250C
:100FB00000F00046B6F1004F02D11D4EF16901E08C
:100FC0001B4E7168C0F3034583B200F44016B6F5BA
:100FD000401F08D121F07061154E766826F07066CA
:100FE000134F7E6012E000F48016B6F5801F06D124
:100FF000032606FA05F4A14341F0706106E0460DB0
:10100000360103FA06F6B14341F0706122B1460D94
:10101000360103FA06F6314300F00046B6F1004F00
:1010200002D1034EF16101E0014E7160F0BD00009C
:1010300000000140002945D0454A904206D1454A6A
:10104000926942F00402434B9A6180E0424A904226
:1010500006D1404A926942F008023E4B9A6176E01E
:101060003E4A904206D13B4A926942F01002394B07
:101070009A616CE03A4A904206D1364A926942F04F
:101080002002344B9A6162E0364A904206D1314ADE
:10109000926942F040022F4B9A6158E0324A9042E6
:1010A00006D12C4A926942F080022A4B9A614EE0A6
:1010B0002E4A90424BD1274A926942F48072254BC6
:1010C0009A6144E0224A904206D1224A926922F073
:1010D0000402204B9A613AE01F4A904206D11D4A11
:1010E000926922F008021B4B9A6130E01B4A904241
:1010F00006D1184A926922F01002164B9A6126E036
:10110000174A904206D1134A926922F02002114BED
:101110009A611CE0134A904206D10E4A926922F06D
:1011200040020C4B9A6112E00F4A904206D1094AE4
:10113000926922F08002074B9A6108E00B4A9042C4
:1011400005D1044A926922F48072024B9A61704779
:101150000008014000100240000C01400010014056
:101160000014014000180140001C01400020014013
:1011700010B500F067FA00220121074804F020F8BA
:1011800004460B21204604F031F80021034803F007
:10119000EFFF0349086010BDF0AF0008E0AF0008A2
:1011A00044000020704700002DE9FC5F054688469A
:1011B00091469A46DDF830B0009507200190002452
:1011C0005FE004EB0410374911F810009BF80010A1
:1011D000884253D104EB0410324901EB40004078BF
:1011E0009BF80110884249D108F10F0083B205F144
:1011F0000F0082B24146284600F05AFB00263BE031
:10120000002734E00D9890B904EB0410254901EB58
:101210004000801C805D80213941084018B148465B
:1012200000F098FC21E0504600F094FC1DE01E48C0
:10123000A0F8009004EB04101A4901EB4000801C58
:10124000805D80213941084018B14146284600F0B0
:10125000F1FA681C85B20098281A102805D1009D63
:1012600008F101001FFA80F803E0781CC7B2082FCC
:10127000C8DB00BF701CC6B2202EC1DB00BF601CE3
:1012800084B2019884429CDB08484088401E83B2A7
:1012900006480088401E82B20021084600F008FB84
:1012A000BDE8FC9F24820008480000204809002077
:1012B0002DE9FC5F0546884691469A46DDF830B038
:1012C000009599200190002467E004EB840000EB76
:1012D00044103A4911F810009BF80010884259D187
:1012E00004EB840000EB4410344901EB40004078EB
:1012F0009BF8011088424DD108F1170083B205F127
:10130000170082B24146284600F0D2FA00263FE09C
:10131000002738E00D98A0B904EB840000EB4410DE
:10132000264901EB4000801C805D80213941084046
:1013300018B1484600F00EFC23E0504600F00AFCCD
:101340001FE01F48A0F8009004EB840000EB44105D
:101350001A4901EB4000801C805D80213941084022
:1013600018B14146284600F065FA681C85B200981D
:10137000281A182805D1009D08F101001FFA80F8ED
:1013800003E0781CC7B2082FC4DB00BF701CC6B2D4
:10139000482EBDDB00BF601C84B20198844294DB00
:1013A00008484088401E83B206480088401E82B22A
:1013B0000021084600F07CFABDE8FC9F128300087B
:1013C00048000020480900202DE9FC5F05468846BA
:1013D00091469A46DDF830B0009501200190002436
:1013E0005FE004EB8410374911F810009BF80010FF
:1013F000884253D104EB8410324901EB400040781D
:101400009BF80110884249D108F11F0083B205F111
:101410001F0082B24146284600F04AFA00263BE00F
:10142000002734E00D9890B904EB8410254901EBB6
:101430004000801C805D80213941084018B1484639
:1014400000F088FB21E0504600F084FB1DE01E48C0
:10145000A0F8009004EB84101A4901EB4000801CB6
:10146000805D80213941084018B14146284600F08E
:10147000E1F9681C85B20098281A202805D1009D42
:1014800008F101001FFA80F803E0781CC7B2082FAA
:10149000C8DB00BF701CC6B2802EC1DB00BF601C61
:1014A00084B2019884429CDB08484088401E83B285
:1014B00006480088401E82B20021084600F0F8F974
:1014C000BDE8FC9F4CAF0008480000204809002000
:1014D0000EB585E0002000F089F948F2304041491E
:1014E00008800020102140A24FF6FF73CDE90021B3
:1014F00002901F220521202000F0A4FC01201821C9
:101500003CA24FF6E073CDE9002102904FF47842FF
:101510001921052000F096FC0120182138A24FF671
:10152000E073CDE9002102904FF478421921352073
:1015300000F07CFA0120182132A24FF6E073CDE9C9
:10154000002102901A463221052000F07BFC012088
:1015500018212FA24FF6E073CDE9002102901A4620
:101560003221352000F062FA0120182129A24FF61D
:10157000E073CDE9002102904FF6FF724B21052068
:1015800000F060FC0120182126A24FF6E073CDE99F
:10159000002102904FF6FF724B21352000F046FAF1
:1015A0000120182121A24FF6E073CDE9002102901D
:1015B0004FF4FC626421052000F044FC0120182156
:1015C0001EA24FF6E073CDE9002102904FF4FC62B9
:1015D0006421352000F02AFA40F2DC5003F0F2FCDE
:1015E00078E7000048000020CFB5CDB3BCE0BFD8FD
:1015F00000000000CEC2B6C82020202020A1E600B6
:101600003A323400CAAAB6C82020202020A3A50060
:101610003A333200B5E7D1B9202020202020A3D6CC
:10162000000000003A332E3200000000B5E7C1F799
:10163000202020202020A3C1000000003A302E32BC
:101640000000000010B500F0EFFA00F001F9FFF71C
:1016500069FA112000F09CFA142003F0B3FC262054
:1016600000F096FA042000F05BFAB12000F090FA46
:101670000E2000F055FA102000F052FAC02000F0C1
:1016800087FA082000F04CFA002000F049FAC12047
:1016900000F07EFA052000F043FAC52000F078FA49
:1016A000382000F03DFA402000F03AFA3A2000F0ED
:1016B0006FFA052000F034FA362000F069FA1C2099
:1016C00000F02EFA2A2000F063FA002000F028FA39
:1016D000002000F025FA002000F022FA7F2000F020
:1016E0001FFA2B2000F054FA002000F019FA2020F5
:1016F00000F016FA002000F013FA9F2000F010FA14
:10170000B42000F045FA002000F00AFAF22000F0C0
:101710003FFA012000F004FAE02000F039FA3F20FF
:1017200000F0FEF9222000F0FBF9202000F0F8F98B
:10173000302000F0F5F9292000F0F2F90C2000F03B
:10174000EFF94E2000F0ECF9B72000F0E9F93C2069
:1017500000F0E6F9192000F0E3F9222000F0E0F9AA
:101760001E2000F0DDF9022000F0DAF9012000F07F
:10177000D7F9002000F0D4F9E12000F009FA0020A8
:1017800000F0CEF91B2000F0CBF91F2000F0C8F9C3
:101790000F2000F0C5F9162000F0C2F9132000F068
:1017A000BFF9312000F0BCF9842000F0B9F94320E2
:1017B00000F0B6F9062000F0B3F91D2000F0B0F9F2
:1017C000212000F0ADF93D2000F0AAF93E2000F004
:1017D000A7F93F2000F0A4F9292000F0D9F92C2026
:1017E00000F0D6F900F04EF810BD000070B50646C6
:1017F0000F484088401E83B20D480088401E82B2C8
:101800000021084600F054F800240CE0002504E014
:10181000304600F09FF9681C85B205484088A84210
:10182000F6DC601C84B202480088A042EEDC70BD89
:101830004809002030B504460D462946204600F0F0
:1018400017F80248008800F085F930BD48000020F4
:1018500010B5402005494861642003F0B3FB4020E7
:1018600002490861322003F0ADFB10BD00100140B9
:1018700030B504460D462B4622462946204600F048
:1018800017F830BD00B52C20084908810020887168
:1018900082200880832048802A2048812B2088814C
:1018A000C821362000F096F900BD0000480900204C
:1018B000F0B506460C4617461D461149488900F00A
:1018C00067F9301200F02CF9F0B200F029F9381263
:1018D00000F026F9F8B200F023F90949888900F0F0
:1018E00057F9201200F01CF9E0B200F019F92812A3
:1018F00000F016F9E8B200F013F900F063F9F0BD5A
:10190000480900202DE9FF4F83B081468A4693465F
:10191000DDE91064414800880290A6F12000C6B2BB
:1019200004EBD47009EB6000401E82B20AEB0400A5
:10193000401E83B2514648460194FFF7B9FF129802
:1019400060BB002527E00C2C07D106EB460034498C
:1019500001EB800010F8058004E0324800EB06102F
:1019600010F8058000270FE008F0010020B10BF00F
:10197000FF0000F0D5F803E00699C8B200F0D0F8F7
:101980004FEA6808781CC7B204EBD471B7EB610F5B
:10199000EADB681CC5B2A542D5DB2DE0002529E0B5
:1019A0000C2C07D106EB46001D4901EB800010F816
:1019B000058004E01B4800EB061010F805800027A6
:1019C00011E01648A0F800B008F0010038B10AEBA9
:1019D000050291B209EB070290B2FFF72BFF4FEA25
:1019E0006808781CC7B204EBD471B7EB610FE8DB71
:1019F000681CC5B2A542D3DB0849029808800A4892
:101A00004088401E83B208480088401E82B20021F0
:101A10000846FFF74DFF07B0BDE8F08F48000020F3
:101A200050750008C4790008480900202DE9FE4FD0
:101A300004460E4691460C9F364800880290019459
:101A4000009600255BE034480088401EA04204DB7D
:101A500031484088401EB04201DABDE8FE8F3D7833
:101A60003A2D01D10A250AE02E2D01D10B2506E0E1
:101A70002D2D01D10C2502E0A5F13000C5B2019455
:101A80004FF000082DE005EB4500244901EB001064
:101A900010F808A04FF0000B1BE01E48A0F80090C3
:101AA0000AF0800018B131462046FFF7C3FE4FF61A
:101AB000FF7000EA4A0A601C84B20198201A0C28C0
:101AC00003D1019C701C86B206E00BF1010000F00E
:101AD000FF0BBBF1080FE0DB00BF08F1010000F0D5
:101AE000FF08B8F1300FCEDB0A2D03DA04F1100045
:101AF00084B202E004F1080084B2009E7F1C3878B2
:101B00007E2802DC387820289DDA02490298088075
:101B100000BFA2E74800002048090020B47F000869
:101B200000B503464FF480500749086080200749FC
:101B300008611946064800F0FFF84FF4805002494A
:101B4000091F086000BD0000140C01400010014096
:101B50000038004000B503464FF480500949086042
:101B60008020094908611912084800F0E5F8D9B247
:101B7000064800F0E1F84FF480500249091F086060
:101B800000BD0000140C014000100140003800406E
:101B900000B503464FF4805007490860802007498C
:101BA0004861D9B2064800F0C7F84FF480500249A6
:101BB000091F086000BD0000140C01400010014026
:101BC0000038004000B502490889FFF7E1FF00BD79
:101BD0004809002030B505460C462846FFF7D8FFD7
:101BE000E0B2FFF79DFF30BD29B1064AD26902433A
:101BF000044BDA6104E0034AD2698243014BDA61A3
:101C0000704700000010024029B1064A9269024361
:101C1000044B9A6104E0034A92698243014B9A6142
:101C2000704700000010024000B587B00121192064
:101C3000FFF7EAFF4FF42040ADF8040003208DF8D1
:101C4000060018208DF8070001A92348FFF7E2F8E5
:101C5000C020ADF8040003208DF8060010208DF898
:101C6000070001A91D48FFF7D5F84FF48050ADF8E3
:101C7000040003208DF8060010208DF8070001A94C
:101C80001548FFF7C7F801218803FFF7ADFF0020D3
:101C9000ADF808004FF48270ADF80A000020ADF8EE
:101CA0000C000220ADF80E000120ADF8100040023B
:101CB000ADF812000020ADF81400ADF816000720B2
:101CC000ADF8180002A9064800F018F801210448F0
:101CD00000F008F807B000BD000C01400010014002
:101CE0000038004021B1028842F04002028004E046
:101CF00002884FF6BF731A400280704710B5002269
:101D0000028802F441520B884C8823438C88234379
:101D1000CC8823430C8923434C8923438C89234358
:101D2000CC8923431A430280838B4FF2FF742340F4
:101D300083830B8A038210BD024600BF108900F026
:101D400002000028FAD0918100BF108900F0010044
:101D50000028FAD09089C0B2704710B500F002F8A0
:101D600010BD00000CB500200190009033480068C1
:101D700040F480303149086000BF3048006800F40A
:101D8000003000900198401C0190009818B901980B
:101D9000B0F5A06FF1D12948006800F4003010B10F
:101DA0000120009001E0002000900098012843D11C
:101DB0002348006840F01000214908600846006888
:101DC00020F0030008600846006840F00200086048
:101DD0001A48406819494860084640684860084603
:101DE000406840F4806048600846406820F47C10F9
:101DF00048600846406840F4E810486008460068BB
:101E000040F08070086000BF0C48006800F000706F
:101E10000028F9D00948406820F0030007494860CD
:101E20000846406840F00200486000BF0348406830
:101E300000F00C000828F9D10CBD00000010024091
:101E4000002002402DE9FF4F83B0064688469146A8
:101E5000DDE91147109DB2464FF0000B73E0BBF176
:101E6000000F42D104EBD471394A1288A2EB610110
:101E7000B14204DB36494988091B414502DA07B003
:101E8000BDE8F08F2878802802DD4FF0010B5AE082
:101E900028780D2806D108EB04001FFA80F8564672
:101EA0006D1C20E00C2C01D0102C0FD128788DE86F
:101EB00091004A4641463046069BFFF723FD2046E7
:101EC00004EBD07106EB61018EB20CE01021287892
:101ED0008DE883004A4641463046069BFFF712FDD7
:101EE00006F1080086B26D1C2DE019480088001B21
:101EF000B04204DB16484088001B404500DABEE7CC
:101F00004FF0000B202C08D1CDE900574A4641463E
:101F10003046069BFFF758FA12E0182C08D1CDE99D
:101F200000574A4641463046069BFFF7C1F907E095
:101F3000CDE900574A4641463046069BFFF734F943
:101F4000AD1C301986B22878002888D100BF96E7EA
:101F50004809002010B51348006840F001001149FD
:101F6000086008464068104908400E494860084625
:101F700000680E4908400B4908600846006820F4D4
:101F8000802008600846406820F4FE0048604FF456
:101F90001F008860FFF7E1FE4FF000600449086011
:101FA00010BD0000001002400000FFF8FFFFF6FE29
:101FB00008ED00E010B50446002005490860072040
:101FC00003F000F801200349C1F8B80110BD00007A
:101FD000B88122420080224270B505462C46204638
:101FE00004F002FB204604F0F3FA18B90A2002F0CC
:101FF000E9FF70BD0BE0A468A088002803DDA0887D
:10200000401EA08003E02188284604F0AFFBA068B2
:102010000028F0D100BFECE710B5024801F0FFF84E
:1020200010BD00004CB1000810B5024801F0F7F8EF
:1020300010BD000094B1000870B504460D46034A77
:102040002946204600F01EFC70BD000074B0000858
:1020500010B50F4881680F4888470D480169022074
:1020600088470B484FF4E131826A012090470848C5
:102070000121826A1520904705480121826A1620B5
:10208000904703481821426903A0904710BD000003
:10209000CCB10008AD21000869276D20757361720D
:1020A000743120666F7220646562756750310D0A65
:1020B0000000000008B5024800F0F4FF009008BDE1
:1020C00074B0000808B5024800F0EFFF009008BDAA
:1020D00074B0000810B5024801F02FF810BD0000E0
:1020E00074B0000808B5024801F02BF8009008BD54
:1020F00074B0000810B5024801F08DF810BD000062
:1021000074B0000810B5024801F089F810BD000055
:1021100074B0000810B504460249204601F0B7F932
:1021200010BD000074B0000810B5044602492046F6
:1021300001F06AFA10BD000074B0000870B50446E2
:102140000D46034A2946204601F072FB70BD00008F
:1021500074B0000870B504460D46034A294620466F
:1021600001F0B7FB70BD000074B0000810B5044664
:102170000249204601F0F1FB10BD000074B00008D8
:1021800070B504460D461646034B32462946204696
:1021900001F031FC70BD000074B0000810B50248B9
:1021A00001F05EFC10BD000074B000087047000034
:1021B00070B504460D46034A2946204600F062FBEE
:1021C00070BD0000BCB0000808B501210420FFF775
:1021D0001BFD4FF48050ADF8000003208DF8020085
:1021E00010208DF8030069461048FEF713FE1048D2
:1021F0008168104888470E480169022088470C48CA
:102200004FF4E131826A0120904709480121826A36
:102210001520904706480121826A162090470448FD
:102220001821426904A0904708BD00000008014041
:1022300004B200084D23000869276D207573617290
:10224000743220666F7220646562756750320D0AC1
:102250000000000008B5024800F024FF009008BD0F
:10226000BCB0000808B5024800F01FFF009008BD90
:10227000BCB0000810B5024800F05FFF10BD0000C0
:10228000BCB0000808B5024800F05BFF009008BD34
:10229000BCB0000810B5024800F0BDFF10BD000042
:1022A000BCB0000810B5024800F0B9FF10BD000036
:1022B000BCB0000810B504460249204601F0E7F81A
:1022C00010BD0000BCB0000810B50446024920460D
:1022D00001F09AF910BD0000BCB0000870B50446CA
:1022E0000D46034A2946204601F0A2FA70BD0000BF
:1022F000BCB0000870B504460D46034A2946204686
:1023000001F0E7FA70BD0000BCB0000810B504464B
:102310000249204601F021FB10BD0000BCB00008BE
:1023200070B504460D461646034B324629462046F4
:1023300001F061FB70BD0000BCB0000810B50248A0
:1023400001F08EFB10BD0000BCB00008704700001B
:1023500070B504460D46034A2946204600F092FA1D
:1023600070BD000004B1000808B52B4881682B48F7
:102370008847294801690220884727484FF4E131FE
:10238000826A0120904724480121826A15209047E3
:1023900021480121826A1620904701212120FFF760
:1023A00033FC01211E48FEF7FDFD4FF48070ADF8AF
:1023B000000018208DF8030003208DF80200694604
:1023C0001848FEF727FD4FF40070ADF80000042018
:1023D0008DF8030069461348FEF71CFD0121042017
:1023E000FFF712FC0220ADF8000010208DF803006A
:1023F00003208DF8020069460B48FEF70BFD012013
:102400000A49086001218004FFF7EEFB02481C2105
:10241000426907A0904708BD3CB200084925000862
:1024200030001400001401400008014084012142E2
:1024300069276D2075736172743320666F72206432
:102440006174615472616E7350310D0A00000000B6
:1024500008B5024800F026FE009008BD04B100084F
:1024600008B5024800F021FE009008BD04B1000844
:1024700010B5024800F061FE10BD000004B1000874
:1024800008B5024800F05DFE009008BD04B10008E8
:1024900010B5024800F0BFFE10BD000004B10008F6
:1024A00010B5024800F0BBFE10BD000004B10008EA
:1024B00010B504460249204600F0E9FF10BD0000B7
:1024C00004B1000810B504460249204601F09CF80A
:1024D00010BD000004B1000870B504460D46034A63
:1024E0002946204601F0A4F970BD000004B100089F
:1024F00070B504460D46034A2946204601F0E9F925
:1025000070BD000004B1000810B504460249204621
:1025100001F023FA10BD000004B1000870B50446B4
:102520000D461646034B32462946204601F063FA13
:1025300070BD000004B1000810B5024801F090FA27
:1025400010BD000004B100087047000070B50446DB
:102550000D46034A2946204600F094F970BD00005C
:102560004CB1000808B519488168194888471748D0
:1025700001690220884715484FF4E131826A012041
:10258000904712480121826A152090470F48012187
:10259000826A1620904701214020FFF735FB40203A
:1025A000ADF8000010208DF8030003208DF8020024
:1025B00069460848FEF72EFC0120074908600348D9
:1025C0001C21426905A0904708BD000074B20008B4
:1025D000E5260008001801409801234269276D2074
:1025E00075736172743420666F7220646174615413
:1025F00072616E7350320D0A0000000008B5024887
:1026000000F050FD009008BD4CB1000808B502482C
:1026100000F04BFD009008BD4CB1000810B5024819
:1026200000F08BFD10BD00004CB1000808B5024859
:1026300000F087FD009008BD4CB1000810B50248BD
:1026400000F0E9FD10BD00004CB1000810B50446D3
:102650000249204600F01BFF10BD00004CB10008ED
:1026600010B504460249204600F0CEFF10BD000020
:102670004CB1000870B504460D46034A2946204671
:1026800001F0D6F870BD00004CB1000870B50446EA
:102690000D46034A2946204601F01BF970BD000093
:1026A0004CB1000810B504460249204601F055F926
:1026B00010BD00004CB1000870B504460D4616462A
:1026C000034B32462946204601F095F970BD0000C3
:1026D0004CB1000810B5024801F0C2F910BD00006D
:1026E0004CB100087047000070B504460D46034A1F
:1026F0002946204600F0C6F870BD000094B10008DD
:1027000008B51948816819488847174801690220A7
:10271000884715484FF4E131826A012090471248FA
:102720000121826A152090470F480121826A1620F4
:10273000904701210420FFF767FA4FF48050ADF86D
:10274000000010208DF8030003208DF80200694678
:102750000748FEF75FFB01200649086002481C217C
:10276000426905A0904708BDACB200088128000866
:1027700000080140B001214269276D207573617224
:10278000743520666F7220646174615472616E7377
:1027900050330D0A0000000008B5024800F082FC2A
:1027A000009008BD94B1000808B5024800F07DFC17
:1027B000009008BD94B1000810B5024800F0BDFCBF
:1027C00010BD000094B1000808B5024800F0B9FC43
:1027D000009008BD94B1000810B5024800F01BFD40
:1027E00010BD000094B1000810B50446024920460F
:1027F00000F04DFE10BD000094B1000810B5044675
:102800000249204600F000FF10BD000094B100080E
:1028100070B504460D46034A2946204601F008F8E3
:1028200070BD000094B1000870B504460D46034A1F
:102830002946204601F04DF870BD000094B1000813
:1028400010B504460249204601F087F810BD00008B
:1028500094B1000870B504460D461646034B324647
:102860002946204601F0C7F870BD000094B1000869
:1028700010B5024801F0F4F810BD000094B1000852
:10288000704700002DE9FE4F07460D461446206BA9
:10289000C07A00F0020018B94FF0FF30BDE8FE8F9B
:1028A0000020009080468346F8B2153806287CD276
:1028B000DFE800F0A3DC032C4E6CA5B1606B90F850
:1028C000210010B16FF00100E8E70120616B81F891
:1028D0002100616B81F820006068808940F08100F0
:1028E0006168888110E0606B90F8200060B16068DA
:1028F000808920F08000616888810020616B81F808
:102900002000616B81F821000020C7E760688089A2
:1029100020F0C00061688881A06A88B1606B90F87F
:10292000210068B16068808A20F080006168888238
:10293000A16A0868016821F00101016000BF00BFC1
:102940000020616B81F82000616B81F82100A5E710
:102950006068808920F0200061688881E06A80B129
:10296000206B407968B16068808A20F0400061681F
:102970008882E16A0868016821F00101016000BFF6
:1029800000BF0021206B4171002087E760688089CB
:1029900020F0E00061688881A06A98B1606B90F8CF
:1029A000210078B16068808A00E0C2E020F08000F9
:1029B00061688882A16A0868016821F001010160EC
:1029C00000BF00BFE06A80B1206B407968B16068E9
:1029D000808A20F0400061688882E16A08680168A6
:1029E00021F00101016000BF00BF0021206B417197
:1029F0000020616B81F8210050E7E06810B94FF0CA
:102A0000FF304BE7BDB1206BC068062806D0E268F6
:102A10009188032310680222FEF787FA206BC07AA0
:102A200040F00800216BC8726068808940F008009F
:102A30006168888118E06068808920F0080061681A
:102A40008881206BC07A20F00800216BC872206B4F
:102A5000C068062808D0E06830B1E2689188002399
:102A600010681A46FEF761FA002017E7206910B9CE
:102A70004FF0FF3012E7E5B3206BC06806280AD09C
:102A8000206BC068042806D0226991880023106852
:102A90000122FEF74AFA206BC07A40F01000216B49
:102AA000C8726068808A40F001006168888260684E
:102AB000008A40F04000616808826068808940F0C8
:102AC000100061688881206B407918B1E06A08B114
:102AD000012000E0002028B96068808940F02000D3
:102AE000616888816068808940F00400616888813D
:102AF0001DE0FFE76068808920F00400616888813C
:102B0000206BC07A20F01000216BC872206BC06867
:102B100006280CD0206BC068042808D0206930B18A
:102B200022699188002310681A46FEF7FEF90020FA
:102B3000B4E600BF00BF206B407918B9606B90F815
:102B4000210010B16FF00100A8E66068808900F0F4
:102B5000080038B16068008800F0400010B96FF0DC
:102B600001009BE6F8B2152872D2DFE800F0C90B2D
:102B70000E1D20252AC9C9C9C9C9C9C9C9C9373B38
:102B8000697EB80001200290BDE02078C0F34000CB
:102B900020B148F4006848F4807802E06FF0060045
:102BA0007CE602200290AEE06FF0060076E64BF085
:102BB000080B04200290A6E04BF0020B05200290C7
:102BC000A1E02078C0F3401010B14BF0200B02E0E0
:102BD0006FF0060062E60620029094E0616B4D8380
:102BE00000205BE6206BC068052824D015B3606820
:102BF000808A40F0040061688882D4F808A0FE480A
:102C0000B0FBFAFA012605E00AFB06F0A84200D95B
:102C100002E0761CFF2EF7D900BFB6F5807F02D107
:102C20004FF0FF303AE66068008B20F0FF00304341
:102C30006168088302E04FF0FF302FE600202DE6A8
:102C4000206BC06806280BD1FF2D02D9C01F25E6D6
:102C500056E06068008BC0B228436168088302E0D8
:102C60004FF0FF301AE6002018E6206BC0680628F7
:102C700030D1D4F808A0E048B0FBFAFA012619E0F8
:102C80000AFB06F040006421484305EB051101EB07
:102C90004101B0EB410F0CD20AFB06F04000642169
:102CA000484305EB051101EB4511B0EB410F00D98D
:102CB00002E0761C402EE3D300BF402E02D14FF03D
:102CC000FF30EBE56068008B20F0FF003043616867
:102CD000088302E04FF0FF30E0E50020DEE5206BE6
:102CE000C068062807D14DB16068808A40F01000A6
:102CF0006168888202E04FF0FF30CFE50020CDE52B
:102D00006FF00300CAE500BF07F4E06060B1B0F502
:102D1000807F13D0B0F5E06F1DD107F4405010B99B
:102D20006FF00800BAE519E007F4405028B148F008
:102D30002008009840F4805000900FE007F44050C5
:102D400010B16FF00800A9E548F02008009840F4A1
:102D50008050009002E06FF008009FE500BF07F48C
:102D6000405030B1B0F5805F04D0B0F5005F0BD1BA
:102D700005E00CE0009840F48060009007E00098C7
:102D800040F4C060009002E06FF0090086E500BFEB
:102D900007F4404048B1B0F5804F07D0B0F5004F80
:102DA00007D0B0F5404F0AD106E00BE048F40058D8
:102DB00008E048F4405805E048F4805802E06FF01D
:102DC0000A006BE500BF07F4403048B1B0F5803F22
:102DD00009D0B0F5003F13D0B0F5403F2ED11CE034
:102DE0004FF000092DE02078C0F3C01020B14FF45F
:102DF00080394BF4807B02E06FF00B004EE520E061
:102E00002088C0F3002020B14FF400394BF4C06B90
:102E100002E06FF00B0041E513E02078C0F3C01032
:102E200040B12088C0F3002020B14FF440394BF46A
:102E3000E06B02E06FF00B0030E502E06FF00B009A
:102E40002CE500BF029802281DD107F4802018B19C
:102E5000B0F5802F04D100E005E048F4806802E07E
:102E60006FF00C001AE500BF07F4002018B1B0F5B0
:102E7000002F04D100E005E048F4007802E06FF094
:102E80000D000BE500BFA06800EBC00101EB0010D6
:102E9000A900B0FBF1F06421B0FBF1F1A06800EBF8
:102EA000C00202EB0010AA00B0FBF2F0A26802EB35
:102EB000C20303EB0212AB00B2FBF3F26423B2FBDA
:102EC000F3F202EBC20303EB0212A0EB8200322208
:102ED00002EB00106422B0FBF2FA61F31F1AA06843
:102EE00000011FFA8AF1B0FBF1F0000901906421A2
:102EF0000198484305EB051101EB4101B0EB410F8F
:102F000009D264210198484305EB051101EB4511F5
:102F1000B0EB410F02D86FF00700BFE46068808912
:102F200020F40050616888816168A1F808A00298C7
:102F3000216BC860206BC0F81090206BC068062819
:102F400009D1E06830B1E268918803231068022259
:102F5000FDF7EBFF17E0206BC07A00F0080048B1E6
:102F6000E06880B1E2689188032310680222FDF7CF
:102F7000DCFF08E0E06830B1E26891880023106867
:102F80001A46FDF7D2FF00BF206BC068042802D0AC
:102F900006280BD100E000BF206930B1226991887A
:102FA000002310681A46FDF7C0FF18E0206BC07AB6
:102FB00000F0100048B1206980B122699188002397
:102FC00010680122FDF7B1FF08E0206930B12269E5
:102FD0009188002310681A46FDF7A7FF00BF00BFC5
:102FE0006069D0B1206BC068022802D006280BD1DE
:102FF00000BF6269918801E000CA9A3B0323106810
:103000000222FDF792FF07E06269918800231068B1
:103010001A46FDF78AFF00BF00BFA069A0B1B9F54D
:10302000803F02D0B9F5403F07D1A26991880323C0
:1030300010680222FDF779FF06E0A269918800235B
:1030400010681A46FDF771FFE069A0B1B9F5003FBD
:1030500002D0B9F5403F07D1E2699188002310689A
:103060000122FDF762FF06E0E26991880023106803
:103070000122FDF75AFF0098616888816168A1F814
:1030800010806168A1F814B06068808940F4005035
:1030900061688881206BC07A40F00400216BC8729F
:1030A000002011E40146086870470CB501460198FC
:1030B00020F001000190086B006920B1086B0069E5
:1030C000B0F5803F0ED1C86960B1CB6998881A68A5
:1030D0009368C34003F0010323B9019820F0010075
:1030E000401C0190019820F002000190019820F00E
:1030F00008000190019820F0040001900198009AC6
:1031000060F30002009201984208009862F34100C7
:10311000009001988208009862F382000090019864
:10312000C208009862F3C300009001980209009859
:1031300062F31F10009000980CBD0146486B0069B7
:1031400070470CB50146486B90F8210028B10198F2
:1031500020F00100401C019008E04868008801222E
:1031600022EA9012019862F300000190086B427904
:10317000019862F341000190086B8279019862F333
:1031800082000190086BC279019862F3C30001903C
:10319000086B027A019862F304100190086B427A7E
:1031A000019862F345100190086B827A019862F3EE
:1031B000861001900198009A60F300020092019835
:1031C0004208009862F3410000900198820800983C
:1031D00062F3820000900198C208009862F3C30075
:1031E000009001980209009862F304100090019881
:1031F0004209009862F345100090019882090098F6
:1032000062F3861000900198C209009862F3DF1003
:10321000009000980CBD0146486B406970472DE94D
:10322000F04104466068068800270025A84606F09D
:103230002000616889890840002860D0206B4079AF
:1032400038B9606880880121206BC17145F0200584
:1032500055E0206BC068022806D1606BC069012868
:1032600002D16068808802E06068B0F80480606B1A
:103270008268501C636B986082F800806068878960
:1032800007F4806050B907F4805038B14FEA282124
:10329000606B8268501C636B98601170606B006992
:1032A000401C616B0861606B0069616B0968884252
:1032B00025D16068808920F0100061688881002134
:1032C000206B4171206BC068022816D1606BC76902
:1032D0000020616BC861012F04D0022F05D0032F9D
:1032E00009D105E045F0010506E045F0020503E0DF
:1032F00045F0040500E000BF01E045F0020506F0DE
:10330000100061688989084018B16068808845F0BC
:10331000400506F08000616889890840002863D074
:10332000606B90F8200030B16068808940F0010047
:103330006168888158E0606B4068616B49698842C8
:1033400022D0206BC068022807D1606BC0690228B8
:1033500003D1606BB0F81A8016E0606BC168481C3E
:10336000626BD06091F800806068878907F48060A4
:1033700050B907F4805038B1606BC168481C626B6B
:10338000D060087848EA0028606B4069401C616B97
:1033900048616068A0F80480606B4068616B4969AF
:1033A000884221D16068808920F08000616888812E
:1033B0006068808940F04000616888810020616B0E
:1033C00081F82100206BC06802280BD1606BC069B6
:1033D000012809D1206BC07A00F0100020B945F017
:1033E000010501E045F0010506F0400061688989AA
:1033F000084038B16068808920F0400061688881A9
:1034000045F0080506F0080030B1606880880121A9
:10341000206BC17145F0200506F0020030B16068F4
:1034200080880121206B417245F4807506F001000F
:1034300030B1606880880121206B817245F400758D
:1034400006F4807050B16068008820F48070616874
:1034500008800121206B017245F0800506F40070A0
:1034600038B16068008820F400706168088045F415
:10347000806525B1206B006808B1012000E00020C4
:1034800018B1206B016828468847BDE8F08170B507
:1034900005460C46206BC07A00F0010008B1002000
:1034A00070BD206B05600020216B08710021206B2E
:1034B0004171206B8171206BC171206B0172206B97
:1034C0004172206B81720020216BC860616B81F8B2
:1034D00021002421606BFDF738FA608CFDF700FCB9
:1034E000E06820B1E16808680121FDF7A3FD2069CB
:1034F00020B1216908680121FDF79CFD606920B1B8
:10350000616908680121FDF795FDA06920B1A169F5
:1035100008680121FDF78EFDE06920B1E1690868C6
:103520000121FDF787FD0120216BC8720020B7E75C
:103530002F49884205D12F49C96841F480412D4A5D
:10354000D1602D49884205D12A49096941F40031E9
:10355000284A11612949884205D12649096941F45F
:103560008021244A11612649884205D121490969EF
:1035700041F400211F4A11612249884205D11D49A9
:10358000096941F480111B4A116100BF00BF00BFEF
:1035900000BF1749884205D11649C96821F4804106
:1035A000144AD1601449884205D11249096921F4AD
:1035B0000031104A11611149884205D10D4909694C
:1035C00021F480210B4A11610D49884205D1094936
:1035D000096921F40021074A11610A49884205D18D
:1035E0000449096921F48011024A11617047000001
:1035F00000380140001002400044004000480040F4
:10360000004C00400050004070B505460C4625B106
:10361000012D71D0022D6ED171E06068FFF788FF37
:1036200094F92400002817DB00F01F0201219140CB
:10363000774A430942F8231000BF00BF00BFBFF321
:103640004F8F00BF00BF00BF00BF00BF00BFBFF370
:103650006F8F00BF00BF00BF00BF6E496068884227
:1036600005D16D48806920F480406B4988616B49C1
:103670006068884205D16848C06920F40030664916
:10368000C86167496068884205D16348C06920F411
:1036900080206149C86163496068884205D15E48FD
:1036A000C06920F400205C49C8615F4960688842B5
:1036B00005D15948C06920F480105749C8610020DD
:1036C000216B08710021206B4171206B8171206B8F
:1036D000C171206B0172206B4172206B81720020DE
:1036E000616B81F82100206BC07A20F00200216B11
:1036F000C8728AE000E085E06FF0030070BD206BC7
:10370000C07A00F0010010B94FF0FF30F6E7206BEF
:10371000C07A00F0020008B10020EFE70020216B22
:1037200008710021206B4171206B8171206BC17188
:10373000206B0172206B4172206B81720020616BE3
:1037400081F82100616B4883616BC861616B81F80E
:103750002000216BC860216B08610320216BC872B7
:103760002C496068884205D12B48806940F480402C
:103770002949886129496068884205D12648C0697D
:1037800040F400302449C86125496068884205D169
:103790002148C06940F480201F49C8612149606800
:1037A000884205D11C48C06940F400201A49C8610C
:1037B0001D496068884205D11748C06940F48010EF
:1037C0001549C86194F92400002807DB00F01F02A6
:1037D00001219140154A430942F8231000BF94F992
:1037E0002400002809DB00F01F020121914042095A
:1037F000920002F1E022C2F8001100BF6068FFF7FA
:1038000097FE02E06FF0030078E700BF002075E745
:1038100080E100E000380140001002400044004018
:1038200000480040004C00400050004080E200E0B2
:103830002DE9F04105460E46144605B11EB96FF05C
:103840000400BDE8F081206BC07A00F0040010B9DC
:103850004FF0FF30F5E7206B4079012801D1C01E01
:10386000EFE76068808920F0200061688881606BE4
:1038700006600021206B0172206B4172206BC171C8
:10388000206B8172606B85600020616B0861012193
:10389000206B41716068808940F0300061688881E8
:1038A000206BC068022812D1606BC06978B9022011
:1038B000616BC861616B01F11A002246314600F06C
:1038C00008F80746B81C10B96FF00100B9E70020EE
:1038D000B7E72DE9F04105460E46144605B11EB97D
:1038E0006FF00400BDE8F081206BC07A00F00400A6
:1038F00010B94FF0FF30F5E7606B90F8210010B180
:103900006FF00100EEE70120616B81F82100606B30
:10391000C560606B46600020616B4861206BC068C9
:10392000022812D1606BC06978B90120616BC8614F
:10393000616B01F1180022463146FFF779FF074617
:10394000B81C10B96FF00100CCE76068808940F0C6
:103950008000616888810020C4E770B5044634B1F6
:10396000012C22D0022C3FD0032C3CD13DE0086B2F
:10397000006920B1086B0069B0F5003F11D188697A
:1039800090B18D69AA88012328681BB10125954053
:10399000056104E002F110050126AE40066100BF9A
:1039A00002E04FF0FF3070BD22E0086B006920B1EB
:1039B000086B0069B0F5003F11D1886990B18D693D
:1039C000AA88002328681BB101259540056104E001
:1039D00002F110050126AE40066100BF02E04FF083
:1039E000FF30E0E704E000BF00BF4FF0FF30DAE750
:1039F00000BF0020D7E72DE9F04180460E4617466C
:103A00001C46B8F1000F01D006B11FB96FF00400D9
:103A1000BDE8F081206BC07A00F0040010B94FF0CF
:103A2000FF30F5E7206BC068022814D10320616BDA
:103A3000C861224639463046FFF7FAFE05460DB109
:103A40002846E5E7224639464046FFF742FF05464D
:103A500025B12846DCE74FF0FF30D9E70020D7E753
:103A600010B50446E06830B1E26891880023106820
:103A70001A46FDF75AFA206930B12269918800236D
:103A800010681A46FDF751FA606930B16269918891
:103A9000002310681A46FDF748FAA06930B1A26900
:103AA0009188002310681A46FDF73FFAE06930B1AB
:103AB000E2699188002310681A46FDF736FA208CD7
:103AC000FDF70EF90020216BC87210BD08B5024841
:103AD0000068009008BD000060B000082DE9F047C4
:103AE000FEB005464FF4FA79494601A8FCF72DFFD0
:103AF0000027B846A5F1A100052818D2DFE800F09C
:103B000003070B0F13002E482E49086013E02E48C0
:103B10002C4908600FE02D482A4908600BE02C482A
:103B20002849086007E02B482649086003E0002088
:103B30007EB0BDE8F08700BF4FF4FA7101A8FCF732
:103B400004FF204800680E21426923A090471D48C9
:103B500000684FF4FA71826901A890471E2001F0B5
:103B600031FA184800680021826A1920904700BF86
:103B70000B231DA24FF4FA7101A801F0E6F90446E7
:103B8000DCB10B3420783038C6B20120B040384365
:103B9000C7B215A101A802F0C1FA0D3000F0FF086C
:103BA00001A901EB0800FCF718FE824601A800EB12
:103BB00008015246FCF730FEDAE73846B8E7000065
:103BC000CCB100083800002004B200083CB2000864
:103BD00074B20008ACB2000841542B43495053540E
:103BE000415455530D0A00002B434950535441543E
:103BF00055533A0070B5AAB005460A26A0223949A5
:103C000002A8FCF74EFEA5F1A100052818D2DFE8B6
:103C100000F003070B0F130033483449086011E02C
:103C20003348324908600DE032483049086009E005
:103C300031482E49086005E030482C49086001E011
:103C40002AB070BD00BF29480068032142692CA03A
:103C50009047642001F0B6F92448006805214269C4
:103C600028A09047642001F0ADF9204800680321A6
:103C7000426923A09047642001F0A4F91B48006822
:103C8000052142691FA09047642001F09BF90024A0
:103C90001AE002A800EB0410C0890321CDE900104E
:103CA00002A800EB041000F10C0302A800EB0410C2
:103CB000021D02A800EB04100168284602F010FC67
:103CC00000B90024601CC4B20A2CE2DB074800687B
:103CD000042142690DA090470A2001F073F900BF4A
:103CE000AEE7000078740008CCB100083400002072
:103CF00004B200083CB2000874B20008ACB200087C
:103D00002B2B2B002B2B2B0D0A00000041540D0AEE
:103D1000000000002DE9F84F05468B4691469A4673
:103D20000A9F7F200090B846002600247F2221466B
:103D3000641C6A542146641C6F5428194A4659462B
:103D4000FCF76AFD04EB0900C4B200BF05E01BF8F4
:103D5000060080EA0808701CC6B24E45F7DB281939
:103D60003A465146FCF758FDE019C4B2002605E07A
:103D70001AF8060080EA0808701CC6B2BE42F7DBDB
:103D80002046611CCCB205F800802046BDE8F88FC3
:103D90002DE9F04FAFB007460D4690464FF0820A2E
:103DA00084210EA8FCF7D1FD4FF0030B30224949C6
:103DB00002A8FCF776FD0024A1460026A7F1A10089
:103DC000052818D2DFE800F003070B0F1300424864
:103DD0004249086013E04248404908600FE041480A
:103DE0003E4908600BE040483C49086007E03F4816
:103DF0003A49086003E000202FB0BDE8F08F00BF13
:103E000036480068822182690EA89047404601F03A
:103E1000D9F8324800680021826A192090470020B2
:103E20002870002652E0C6EB061102AA8818FCF79B
:103E3000D4FC0190C6EB061002A9421882210EA8FC
:103E4000019B01F082F80446002C3DD026B1012EE2
:103E500027D0022E37D12DE0E079283800F0FF0975
:103E6000607A7F281CD1E0793238C1B204F10A00AF
:103E700000F0DEFA14F80910884211D16079303868
:103E80006870B4F80B006880A27A04F10D01281D57
:103E9000FCF7C2FCA07A85F8680001202870ABE727
:103EA00011E0601E044600783038687002202870E7
:103EB0000120A1E7601E04460078303868700320B6
:103EC0002870012098E700BF701CC6B2032EAADB41
:103ED000002091E718750008CCB100083C000020D4
:103EE00004B200083CB2000874B20008ACB200088A
:103EF0002DE9F04FD3B006460F46904699468220F2
:103F00005290842131A8FCF720FD842110A8FCF7F1
:103F10001CFD28200F90282105A8FCF716FD4FF066
:103F2000000A0220049068A00068039000244FF467
:103F30007A7002904FF0000B6448006801F0E2F8DC
:103F40000546A6F1A100052818D2DFE800F0030716
:103F50000B0F13005E485F49086013E05E485D493F
:103F600008600FE05D485B4908600BE05C48594918
:103F7000086007E05B485749086003E0002053B041
:103F8000BDE8F08F00BF5D9800904A46414610A8FA
:103F90005C9BFFF7BFFE824653463A4652A105A8F6
:103FA000FCF764FA05A8FCF718FC01904948006882
:103FB000426905A8019990474648006882218269B4
:103FC00031A890470A2000F0FDFF0EE0052000F028
:103FD000F9FF601C84B2112348A2822131A800F0AD
:103FE000B4FF10B140F2E93409E0012348A2822174
:103FF00031A800F0AAFF10B9B4F57A7FE6DB00BF64
:10400000344800680021826A19209047B4F57A7F0D
:1040100001DB0020B3E70024842131A8FCF795FCE4
:104020002C4800685146426910A89047294800680A
:104030008221826931A890470A2000F0C3FF04E082
:10404000052000F0BFFF601C84B2072331A282214B
:1040500031A800F07AFF10B9B4F57A7FF0DB1D4883
:1040600000680021826A19209047B4F57A7F01DB4D
:10407000002084E70A2000F0A5FF4FF0010B5E98B6
:10408000012819D1BBF1000F14D0C82229463046AF
:10409000FFF77EFE70B1287800F01F00012806D1DE
:1040A000022203A9A81CFCF76CFB00B904E04FF046
:1040B000000B01E04FF0000B29460448006801F0B6
:1040C00047F858465BE700000AFF00001C0000208C
:1040D000CCB100084000002004B200083CB2000847
:1040E00074B20008ACB2000841542B434950534508
:1040F0004E443D25642C25640D0A00006C696E6BEE
:10410000206973206E6F742076616C696400000012
:104110003E00000053454E44204F4B00E0B0824625
:1041200000BF00BF502123A8FCF70FFC00BFA74928
:1041300003C9CDE921010227A5A207CA1EAB07C307
:104140004FF0000B4FF0000900BF4FF00008A348EC
:10415000006800F0D7FF04465046FFF74BFD00BF54
:10416000B9F1640F04DA09F1010000F0FF0905E07C
:104170004FF000095046FFF7B1FC804605219848F2
:10418000006800F0A7FF5DAB07C35D9810283DD124
:104190005E9E307810B1012830D12EE0B8F1000FCA
:1041A0002AD0502123A8FCF7D0FB70788DF88C0022
:1041B000B0788DF88D0096F86720F11C0DF18E0017
:1041C000FCF72AFB002515E00120A84000EA0800C2
:1041D00070B1012196F86700801CC0B223AA0223A7
:1041E000CDE900200291921E29465046FFF780FE3D
:1041F000681CC5B2052DE7DB01E000E000BF00BF91
:1042000031467848006800F0A3FF00BF3222214603
:104210005046FFF7BDFD0028A2D0982137A8FCF733
:1042200094FB207800F01F00012804D0022875D0EC
:10423000032874D1B0E064201D90642104A8FCF729
:1042400084FB642104A8FCF780FB00250AE0211D03
:104250004A5D05EB450104ABC81863A1FCF706F9FC
:10426000681CC5B294F86800A842F0DC04AAE078A3
:10427000A178CDE90102009163785D4A962137A8C3
:10428000FCF708F937A8FCF7A8FA06465948314662
:10429000426937A89047142000F094FE00270AE0F6
:1042A00021A800EB87010222A01CFCF76AFA00B9E2
:1042B00003E0781CC7B2022FF2DB00BF022F50DAF6
:1042C00017B1012F4AD12BE04648006800F01AFFD1
:1042D000064601203070982137A8FCF736FB0120F4
:1042E00005211EAACDE900210290617802235046E3
:1042F000FFF7FEFD83465B463F4A962137A8FCF751
:10430000C9F837A8FCF769FA03903A48426937A818
:1043100003999047142000F055FE20E022E053E07E
:104320003048006800F0EEFE06460020307020792C
:1043300070706179B17094F86800821EA11DF01C44
:10434000FCF76AFA94F86800801E86F86700642219
:1043500031462A48006800F0C9FE00E000BF00BFF7
:10436000022732E061780120884040EA080000F02E
:10437000FF08637822A2962137A8FCF78BF837A8AC
:10438000FCF72BFA06461B483146426937A890478E
:10439000142000F017FE18E063781FA2962137A8BA
:1043A000FCF778F861780020884000EA080837A810
:1043B000FCF713FA06460F483146426937A8904782
:1043C000142000F0FFFD00E000BFC9E648750008BA
:1043D0000102030405060708090A00001C0000206A
:1043E000240000202000002025303258200000004A
:1043F00020B30008CCB10008BCB40008280000209D
:10440000B5A5D4AAA3BA256420C1B4BDD3D2D1B472
:10441000B4BDA80D0A000000B5A5D4AAA3BA2564AE
:1044200020C1B4BDD3D2D1B6CFBFAA0D0A000000BF
:1044300010B502460B4600211078012103E0545CC0
:1044400060404C1CE1B29942F9DB10BD2DE9F04F00
:10445000ADF6DC0D80460E4617464FF007094FF0CB
:10446000030A4FF0040B4FF4066242491FA8FCF701
:1044700018FA64201E90642105A8FCF766FA4FF430
:10448000006000FA07F5002468E0642105A8FCF745
:104490005CFA032C02D0042C14D106E0F0B28DF8A3
:1044A0001400300A8DF8150020E0E8B28DF81400F1
:1044B000280A8DF81500280C8DF81600280E8DF8A6
:1044C000170013E004EB041000EBC0001FAB03EB7C
:1044D000400090F8982004EB041000EBC00003EBC0
:1044E0004000811C05A8FCF797F900BF00BF04EB52
:1044F000041000EBC0001FA901EB4000B0F8300130
:10450000032304EB041101EBC1011FAA02EB4101DB
:1045100091F82F1104EB041202EBC2020DF17C0C96
:104520000CEB42029932CDE901130092039004EBA7
:10453000041000EBC0001FAA02EB400090F8983076
:1045400004EB041000EBC00002EB400105AA40465A
:1045500002F02CF900B90024601CC4B2072C94DBD3
:104560000D221146404602F09BF90DF6DC0DBDE828
:10457000F08F0000D86A00082DE9F84F05468B46F9
:1045800091469A460A9FFE200090B84600260024D5
:10459000FE222146641C6A542146641C6F5428196B
:1045A0004A465946FCF738F904EB0900C4B200BF8B
:1045B00005E01BF8060080EA0808701CC6B24E45EC
:1045C000F7DB28193A465146FCF726F9E019C4B240
:1045D000002605E01AF8060080EA0808701CC6B23A
:1045E000BE42F7DB2046611CCCB205F800802046B5
:1045F000BDE8F88F2DE9F0479AB007460D46904682
:104600004FF06409642101A8FCF79FF94FF0020AFA
:1046100058480068009000240026A7F1A100052852
:1046200018D2DFE800F003070B0F1300524853497C
:10463000086013E05248514908600FE051484F4963
:1046400008600BE050484D49086007E04F484B496F
:10465000086003E000201AB0BDE8F08700BF4748BB
:1046600000686421826901A89047404600F0AAFCD6
:10467000424800680021826A192090470020287073
:10468000002672E0684600EB46020223642101A87E
:1046900000F05BFC0446002C65D016B1012E60D101
:1046A00044E014F8020CFE2832D1A079A17C214408
:1046B000C97C88422CD1E079A17C2144097D8842C3
:1046C00026D1A07A08B1012000E00020A870E1798D
:1046D000A07961F31F20A880217AA971617AE9711C
:1046E0006179207961F31F202881E17AA972A17C88
:1046F000E972E97A05F10C00FCF705F9A27C04F1F6
:10470000130105F10C00FCF787F801202870A2E7DF
:10471000684600EB46020223642101A800F0F2FB88
:1047200001A9FF220A54701EC6B21BE014F8020C45
:10473000FE2808D1E178A07861F31F20688002206C
:104740002870012087E7684600EB460202236421B7
:1047500001A800F0D7FB01A9FF220A54701EC6B2BF
:1047600000E000BF00BF701CC6B2022E8ADB002032
:1047700071E7000038730008CCB100082C0000205D
:1047800004B200083CB2000874B20008ACB20008E1
:104790002DE9F04FADF50D7D82460C461546984645
:1047A000989E4FF49A72484940A8FCF77AF80D2079
:1047B0003F9001203E9007203D9003203C90002038
:1047C0003B9042A000683A900320399040A00068D6
:1047D00038906420379064211EA8FCF7B6F8642155
:1047E00005A8FCF7B2F84FF0000BD946394800682D
:1047F00000F088FC074600208DF8EC008DF8ED50A5
:104800000D208DF8EE0003203BAB02223AA9009068
:1048100005A8FFF7B1FE8346E0B28DF87800200AC4
:104820008DF879008DF87A808DF87B5096988DF808
:104830007C000D208DF87E0001208DF87F00072080
:104840008DF880008DF8816032460DF182009799D5
:10485000FBF7E2FFBDF83002032105AACDE9002BEA
:10486000CDE9021006F10A00C3B21EAA40A95046C3
:1048700001F09CFF8146999801281AD1B9F1000FE7
:1048800015D0C82239465046FFF7B4FE78B1B88833
:10489000A04209D1032238A907F10C00FBF771FFF0
:1048A00010B94FF0010904E04FF0000901E04FF0AA
:1048B000000939460748006800F04AFC48460DF5F3
:1048C0000D7DBDE8F08F00003C73000844800000BF
:1048D0000302030014000020F0B0814600BF00BFB7
:1048E00000BF50211AA8FCF730F800BF00BF4FF0FE
:1048F000000800BF3C210BA8FCF727F8C24600BF08
:10490000A74903C9CDE909010226A648006800F0BD
:10491000F9FB0446A448006800F0F4FB0890042268
:1049200041F234214846FFF791FD00BF05219F4821
:10493000006800F0CFFB6DAB07C36D98102841D124
:104940006E9D287810B1012834D132E0AA786978B8
:104950000023089801F0D0FE8346BBF1000F27D05A
:1049600050211AA8FBF7F1FF68788DF86800A87845
:104970008DF8690095F86720E91C0DF16A00FBF7D6
:104980004BFF012195F86700801CC0B21AAA0D23C5
:10499000CDE90032CDE90201BBF800101A464846C5
:1049A000FFF7F6FE824659467F48006800F0D0FBCC
:1049B00001E000E000BF00BF29467D48006800F02C
:1049C000C7FB00BF322221464846FFF713FE0028EE
:1049D000ACD0982147A8FBF7B8FF64212EA8FBF7BD
:1049E000B4FF207800F00F00012802D002286ED119
:1049F000C2E0A1880022089801F04AFE0746E7B904
:104A0000A08810B3E07A04281FDBA088ADF814005A
:104A1000A07B8DF81600E07B8DF817004FF47A70BC
:104A2000ADF818000020079005A90EC9089801F0FC
:104A300005FE089801F0D8FD07E04FF47A70B880C1
:104A400039465948006800F083FB4FF000080EE03B
:104A500004F10C0111F8082008EB48012EABC8182E
:104A600054A1FBF703FD08F1010000F0FF08E07A14
:104A70004045EDDC982147A8FBF767FFA2882EABE5
:104A80004EA147A8FBF7F2FC47A8FBF7A6FE054698
:104A900055482946426947A89047142000F092FAE9
:104AA00000260BE009A800EB8601022204F10C00AD
:104AB000FBF767FE00B903E0701CC6B2022EF1DB03
:104AC00000BF022E57DA1EB1012E51D133E065E04E
:104AD00000253C210BA8FBF738FF0DF12D010898AC
:104AE00000F09CF805468DF82C50012101EB4500A3
:104AF000C0B20BAA0D23CDE90032CDE90201A18895
:104B00001A464846FFF744FE8246982147A8FBF71D
:104B10001CFF5246354947A8FBF7A8FC47A8FBF7FE
:104B20005CFE834630485946426947A890471420A6
:104B300000F048FA1DE01E48006800F0E3FA054660
:104B400000202870A07B6870E17BA970E07A021FCA
:104B500004F11001E81CFBF75FFEE07A001F85F806
:104B60006700642229462248006800F0BFFA00E08E
:104B700000BF00BF022612E062881EA147A8FBF713
:104B800075FC47A8FBF729FE0546174829464269E8
:104B900047A89047142000F015FA00E000BFC5E6D2
:104BA0007074000814000020180000202800002065
:104BB000200000202530325820000000BDD3CAD587
:104BC000B5BDC0B4D7D4BDDAB5E3CDF8C2E7B5D82A
:104BD000D6B7A3BA30782530345820B5C4CAFDBE44
:104BE000DDA3BA25730D0A00CCB1000864B4000837
:104BF00024000020BCECB2E2B5BDD0C2BDDAB5E302
:104C0000C9CFCFDFA3ACBDDAB5E3B5D8D6B7A3BA69
:104C10003078253034580D0A00000000F0B5074602
:104C20000E463D460024384601F0D2FC08B900206B
:104C3000F0BD0AE0AD68A87806F81400E878012114
:104C400001EB44017054601CC4B2A8680028F1D183
:104C50002046EDE710B5002A06DA22F00042D21D08
:104C600022F00703102203E0D21C22F003030C22DF
:104C700013B19C188C4201D9012010BD024401449B
:104C80008360C0E90021C91AD018884202D8106098
:104C90000246F9E70020106010BD30380A2801D222
:104CA000012070470020704705490978002905D088
:104CB00000684FF6FF71DFF80CC000DF704700009E
:104CC000650000206559000804490978002903D0CF
:104CD0000068DFF80CC000DF7047000065000020AE
:104CE0008D58000800BF642000F06CF9FBE700BF9E
:104CF000642000F067F9FBE700BF642000F062F970
:104D0000FBE7A420FFF7E8FDA520FFF707FA000066
:104D100010B50446A4F1A100052831D2DFE800F067
:104D2000030C151E2700FDF793F90021164800F02B
:104D30001FFA1649086024E0FDF746FA00211448DE
:104D400000F016FA134908601BE0FDF70DFB002187
:104D5000114800F00DFA1149086012E0FDF702FC5D
:104D600000210F4800F004FA0E49086009E0FDF741
:104D7000C7FC00210C4800F0FBF90C49086000E07A
:104D800000BF00BF10BD00000C690008000000203B
:104D90001C690008040000202C690008080000209D
:104DA0003C6900080C0000204C690008100000203D
:104DB00008480068C0010BD507480068C00707D045
:104DC000054880380068002802DA0449012008708C
:104DD00070470000FCED00E0800E00E0880000203D
:104DE0004FF06042D36F002BFCD0036BD367D36FBF
:104DF000002BFCD0C07840EA0120A2F87C0070476C
:104E00004FF06041CA6F002AFCD081F87C007047E7
:104E10000EB5802200B109B110460AE001780129DF
:104E2000FAD101A900F020F8042801D0002000E008
:104E30001020DDE9011203B000BD70B50D4604007D
:104E400003D012B92078012801D0802070BD2046FF
:104E500000F0CAFB28B12946204600F030F80020B7
:104E600070BD812070BD000010B504468089002807
:104E700024D0608904EB800000690860606840B15C
:104E80006078022805D10021204600F0F5FD00F0F1
:104E9000E3FD04F10C0000BFD0E85F1F491E8AB299
:104EA000C0E8512F0029F7D16089401C80B2608191
:104EB000E189884201D100206081042010BD10B535
:104EC00000F0DAFDBDE8104000F0C6BD10B500F0FE
:104ED00085F800F0CBF800F055F8A120FFF718FF97
:104EE000A220FFF715FFA320FFF712FFA420FFF772
:104EF0000FFFA520FFF70CFFFCF73AF900F080F850
:104F0000002010BD2DE9F04104460D4616469C4692
:104F10002F46002214E0002100E0491C614509DA17
:104F20005018B84206DA705C02EB010814F80880E9
:104F30004045F2D0614502D11046BDE8F081521CD7
:104F4000BA42E8DB4FF0FF30F7E72DE9F0410446C5
:104F50000D462146164600270EE005E07F1C9F42C5
:104F600002D1C81ABDE8F08111F801CB16F8018B07
:104F7000C445F3D016460027081B1844A842ECD9B4
:104F80000020EFE710B5094800F0CCF808490860A8
:104F90000021084800F088F8074908600021074808
:104FA00000F082F80649086010BD0000886900081A
:104FB0002000002094690008240000209C6900085B
:104FC00028000020EFF3058109B182207047DFF847
:104FD00008C000DF7047000069610008EFF305803A
:104FE00008B182207047EFF31480C00703D0DFF8C8
:104FF0000CC000DF704701F0C1B800007D610008FF
:1050000088B0EFF3058010B1822008B07047EFF34D
:10501000148010F00301134806D001291BD0022987
:1050200011D0032919D113E008A981F30988007868
:10503000C0070BD05FF0020080F31488BFF34F8FDE
:10504000BFF36F8F09E00078C00706D10320F3E7B4
:105050000078C00701D0FF20D7E7DFF80CC000DFE1
:10506000D3E7000010B00008ED61000810B5084853
:1050700000F058F807490860074800F053F807495E
:105080000860074800F04EF80649086010BD0000AF
:1050900064690008140000207069000818000020EE
:1050A0007C6900081C000020EFF305820AB1002093
:1050B0007047EFF31482D20702D1044A52781AB132
:1050C000DFF80CC000DF704701F0B4B864000020C6
:1050D00035620008EFF305820AB1FFF799BEDFF8E9
:1050E00008C000DF7047000059620008EFF3058335
:1050F0000BB1FFF7A2BEDFF808C000DF7047000069
:1051000093620008EFF3058139B9EFF31481C90701
:1051100003D0DFF80CC000DF704701F0A3B9000036
:1051200065640008EFF3058109B100207047EFF3D3
:105130001481C90702D10449497819B1DFF80CC0BC
:1051400000DF704701F0C0B864000020C9620008A9
:10515000EFF305823AB9EFF31482D20703D0DFF8F8
:105160000CC000DF704701F082B900006F640008D6
:10517000EFF305820AB100207047EFF31482D207E3
:1051800002D1044A52781AB1DFF80CC000DF704730
:1051900001F0AEB864000020F1620008DFF80CC036
:1051A00000DFDFF80CC000DFFEE700005D630008F1
:1051B00079630008DFF804C000DF7047B1630008BE
:1051C000EFF305830BB100207047EFF31483DB0787
:1051D00002D1044B5B781BB1DFF80CC000DF7047D5
:1051E00001F0F2B864000020C9630008EFF3058203
:1051F0000AB182207047DFF808C000DF7047000066
:1052000001640008094C4FF0FF3529462068FFF77C
:1052100061FF02460846102AF7D1FFF7CBFF0028AE
:10522000F3D0024608469047EFE700005400002004
:10523000012806D0022805D0032804D0042804D170
:1052400002E003E002E001E000E000BF00BF00BFB9
:10525000FEE700BFFEE70000074801684FF0E020CE
:10526000416100218161072101610448016841F029
:105270007F410160401770470CB0000820ED00E04E
:10528000704750E8001F31B10B6840E80032002A37
:10529000F7D108467047BFF32F8FFAE710B568B112
:1052A00061B10B3121F00302016844680B1A1B1B2A
:1052B000934205D2084609680029F5D1002010BDA7
:1052C000210007D021180368C1E90032016001F113
:1052D000080010BD4260083010BD000070B50D46DA
:1052E000002812D04FF6FF71084C884204D2226881
:1052F0000146104600F0EEFB20684570044800F0BF
:10530000DDF8BDE8704000F0A9BC70BD6C00002065
:10531000F07000200F4810B50D4942680E480B6828
:105320000068934204D00A60CB88421E1A448A80E7
:105330008A8880B282420AD100200860054800F0C5
:10534000BDF80146BDE81040024800F0E7BB10BDC3
:1053500080000020F07000207C00002070B5194D06
:10536000E86800282CD0A88A401EA882002621E0E8
:10537000A06838B161684160606810B1A16881605F
:105380006660A6600F482146183800F0C7FBA08A67
:10539000A8826078042804D10B49E08A098808446F
:1053A000A08201206070E068E860E06808B10561F3
:1053B000E6602661A88A002802D1EC68002CD7D1CB
:1053C00070BD0000087100207C00002070B5040052
:1053D0000FD00D4DA17801262868827891420CD912
:1053E00000F0B8FB286846702046BDE8704000F029
:1053F00035BC064800F062F8F7E766702146BDE864
:105400007040024800F08ABB6C000020F070002061
:105410000321FFF763BF000010B50446008B08436B
:1054200020836278618B062A18D0052A19D1084298
:1054300017D001EA0002628388432083204600F0EF
:10544000B4FB01206070628B0821204600F0A9FBAC
:105450002146BDE81040034800F060BB31EA00027D
:10546000EAD010BDF0700020814202D342688A4227
:1054700001D80120704702680A60BFF35F8F50E8CF
:10548000003F0A689A42F6D140E80012002AF2D1A1
:105490000020704768B161B10022083902E002467D
:1054A000006830B18842FAD12AB10068106000204B
:1054B00070470120704700214160F8E701464068CD
:1054C00042684A600B780022022B05D0012B03D0E2
:1054D000032B01D04260704743680BB19960426072
:1054E00082607047810700D00020704770B5044685
:1054F00000201546207001226270A17084F82410EB
:105500006060A060E06020612062A082E082208371
:10551000608384F82500E08C18B90548FFF7B1FED8
:10552000E06229462046BDE8704000F01DB800004A
:10553000C00C002008B1082901D2012070470144A5
:10554000091F002201600A60426010467047000097
:1055500003480021016003490988C18070470000A9
:105560008000002000B0000870B5C28C1C4D93086C
:1055700002D12A88C2F38D03C26A02EB8302540768
:1055800000D5121F4FF0807442E902140024264611
:10559000B2F1400242F82460641C0E2CFAD3C469B4
:1055A0001462826201632968C90014D5112B12D9D3
:1055B0004FF0FF31103B11EB53014FF0CC3305D0CE
:1055C00042F8043C42F8083D491EF9D1C16A121F55
:1055D0008A4200D91360C06A0249016070BD0000B0
:1055E000FCAF0008A52E5AE2C1898089081A7047CD
:1055F0000122027000224270827042600281428168
:10560000103982818908C181704700002DE9F0417D
:10561000044640680E464FF0000804F10C05E8B35C
:105620006078012701283ED0022813D003285CD1DE
:105630000846FFF726FE050057D02046FFF73EFF3D
:105640000446294600F0AAFA6770204600F0ADFA39
:10565000214621E02046FFF731FF0646002100F0F9
:105660009DFA2189F06904EB81010861D5E85F0F9B
:10567000401C81B2C5E8501F0028F7D12089401C8A
:1056800080B22081E189884201D1A4F80880777036
:10569000304600F08AFA3146174800E00CE0BDE8D9
:1056A000F04100F03BBA2046FFF708FF04463246BF
:1056B000102100F076FAC7E7A089E189884216D266
:1056C000208904EB80000661D5E85F0F401C81B2A1
:1056D000C5E8501F0028F7D12089401C80B22081E6
:1056E000E189884201D1A4F80880BDE8F081BDE8D5
:1056F000F0410320FFF79CBDF070002070B5164606
:1057000042680D4612B1417801290BD08189C489C4
:105710000023A14224D19EB11D4C216892B100F01A
:10572000FDF916E0FFF7CAFE04462A46102100F0F4
:1057300038FA204600F039FA2046FFF747FE25E008
:10574000012070BD416021684B60216888600221A2
:10575000417020680821C5613046FFF7BFFDEFE7C3
:10576000018900EB81010D6100F10C01D1E85F2F8F
:10577000521C94B2C1E8524F002AF7D10189491C4A
:1057800089B20181C289914200D10381002070BD9C
:105790006C00002070B50446808915460026C0B311
:1057A000608904EB8000006908606089401C80B259
:1057B0006081E189884200D16681606810B16078BB
:1057C00002280BD014F10C04D4E85F0F401E81B204
:1057D000C4E8501F0028F7D1002070BD2046FFF715
:1057E0006DFE0546002100F0D9F92189E86904EB36
:1057F000810108612089401C80B22081E1898842B2
:1058000000D12681284600F0D0F92846FFF7DEFDBA
:10581000E2E7FFE73DB10B48626801682AB1204624
:1058200000F07CF908E0012070BD616001684E6005
:10583000006884600120607008212846FFF74EFD53
:10584000F1E700006C000020002814D0411C13D0A8
:105850000C4A4FF6FE7190420CD800EB4002C2EBAE
:10586000C0120948036803EBC202521EB2FBF3F0F8
:10587000884204D9084670474FF6FF70704780B2DF
:105880007047000000093D001CB000082DE9F04100
:105890000446408820B1314DA1682A68914202D067
:1058A000FF20BDE8F081401E0004000C608053D151
:1058B0002968086AA04209D1E068086208E0C26865
:1058C000A24202D1E268C26002E010460028F6D18E
:1058D00091F824000A6A06E053681BB19B78834262
:1058E00000D91846D268002AF6D18870DFF8708097
:1058F0006168012611B32046FFF7E0FD074600214D
:1059000000F04CF9384600F050F96680A760386A1C
:10591000E0603C622968D8F804008A788078824286
:1059200001D3384616E00E4800F0F8F839460C4826
:1059300000F0F4F8286846707E700AE0D8F8041089
:105940008A782968824207D9054800F0E7F8286874
:1059500046700020FFF73AFD0020A2E76C0000200F
:10596000F070002070B51C4D0E4604464188286832
:1059700061B1A268824210D1A1F57F40FF3803D007
:10598000491C6180002070BDFF2070BDA060016ACD
:10599000E160046201206080F4E776B1917880785C
:1059A000814203D29070A06800F0DEF8606830B1E8
:1059B0002046296800F0B2F808E0012070BD286890
:1059C00060602968002048602868846009213046AA
:1059D000FFF784FCF1E700006C00002070B51B4865
:1059E000012102685170006800F0B4F8184D6C781D
:1059F00018E000BF05EBC40148680278EAB1012A4B
:105A000020D000F0FFF8E878641C844200D1002424
:105A10000F48801CD0E84F1F491EC9B2C0E8421F82
:105A2000002AF7D1A8780028E4D16C700948FFF764
:105A300045FDBDE8704000F011B9098989B2FFF752
:105A4000EBFCE0E78968FFF7E1FDDCE76C00002094
:105A500040680020F07000200548017811B1012154
:105A60004170704703494FF0805008607047000054
:105A70007400002004ED00E0F0B4154DAB1CEE788E
:105A80004FEA0507D3E84F2FB24202D1BFF32F8F61
:105A900011E0521CD4B2C3E8424F002AF2D100BF39
:105AA000D7E84F2F541CB44200D10024E4B2C7E819
:105AB000434F002BF4D1EB78934205D905EBC2029A
:105AC000C2E90101F0BC7047F0BC0220FFF7B0BB97
:105AD00040680020104A10B5D368ABB113469B8ACA
